:020000040800F2
:1000000000000320C50200081503000815030008BE
:100010001503000815030008150300080000000080
:1000200000000000000000000000000015030008B0
:100030001503000800000000150300081503000860
:100040001503000815030008150300081503000830
:100050001503000815030008150300081503000820
:100060001503000815030008150300081503000810
:100070001503000815030008150300081503000800
:1000800015030008150300081503000815030008F0
:1000900015030008150300081503000815030008E0
:1000A00015030008150300081503000815030008D0
:1000B00015030008150300081503000815030008C0
:1000C00015030008150300081503000815030008B0
:1000D00015030008150300081503000815030008A0
:1000E0001503000815030008150300081503000890
:1000F0001503000815030008150300081503000880
:10010000150300081503000815030008150300086F
:10011000150300081503000815030008150300085F
:10012000150300081503000815030008150300084F
:10013000150300081503000815030008150300083F
:10014000150300081503000815030008150300082F
:10015000150300081503000815030008150300081F
:10016000150300081503000815030008150300080F
:10017000150300081503000815030008000000001F
:1001800015030008150300081503000815030008EF
:1001900015030008150300081503000815030008DF
:0C01A000150300081503000815030008F3
:1001AC000348044B834202D0034B03B118477047FA
:1001BC000000002000000020000000000548064B55
:1001CC001B1AD90F01EBA301491002D0034B03B149
:1001DC0018477047000000200000002000000000BD
:1001EC0010B5064C237843B9FFF7DAFF044B13B173
:1001FC000448AFF300800123237010BD00000020E1
:10020C00000000006003000808B5054B1BB1054950
:10021C000548AFF30080BDE80840FFF7CFBF00BF33
:10022C00000000000400002060030008034AD2F81C
:10023C00883043F47003C2F88830704700ED00E05A
:10024C0008B500F019F806E00A4AD2F8183443F061
:10025C008003C2F81834074BD3F8103813F4005F3E
:10026C00F2D1044AD2F8183443F40003C2F818341B
:10027C00F1E700BF000002400D4AD2F8303843F0DD
:10028C000603C2F830380B4BD3F8002442F48042FA
:10029C00C3F80024D3F8082442F48042C3F808249D
:1002AC00D3F8182442F40002C3F81824704700BF96
:1002BC000030024000000240DFF834D00D480E49F7
:1002CC000E4A002302E0D458C4500433C4188C42A4
:1002DC00F9D30B4A0B4C002301E013600432A24209
:1002EC00FBD3FFF7A3FF00F011F8FFF7A9FF70474E
:1002FC000000032000000020000000208003000804
:10030C00000000201C000020FEE7000070B50D4D21
:10031C000D4C641BA4100026A64209D10B4D0C4CAD
:10032C0000F018F8641BA4100026A64205D170BD7D
:10033C0055F8043B98470136EEE755F8043B9847CF
:10034C000136F2E778030008780300087803000808
:10035C007C030008F8B500BFF8BC08BC9E4670478B
:0C036C00F8B500BFF8BC08BC9E46704706
:040378001502000862
:04037C00ED01000887
:04000005080002C528
:00000001FF
