:020000040800F2
:100000000000032099020008E9020008E902000844
:10001000E9020008E9020008E90200080000000007
:10002000000000000000000000000000E9020008DD
:10003000E902000800000000E9020008E9020008E7
:10004000E9020008E9020008E9020008E9020008E4
:10005000E9020008E9020008E9020008E9020008D4
:10006000E9020008E9020008E9020008E9020008C4
:10007000E9020008E9020008E9020008E9020008B4
:10008000E9020008E9020008E9020008E9020008A4
:10009000E9020008E9020008E9020008E902000894
:1000A000E9020008E9020008E9020008E902000884
:1000B000E9020008E9020008E9020008E902000874
:1000C000E9020008E9020008E9020008E902000864
:1000D000E9020008E9020008E9020008E902000854
:1000E000E9020008E9020008E9020008E902000844
:1000F000E9020008E9020008E9020008E902000834
:10010000E9020008E9020008E9020008E902000823
:10011000E9020008E9020008E9020008E902000813
:10012000E9020008E9020008E9020008E902000803
:10013000E9020008E9020008E9020008E9020008F3
:10014000E9020008E9020008E9020008E9020008E3
:10015000E9020008E9020008E9020008E9020008D3
:10016000E9020008E9020008E9020008E9020008C3
:10017000E9020008E9020008E902000800000000A6
:10018000E9020008E9020008E9020008E9020008A3
:10019000E9020008E9020008E9020008E902000893
:0C01A000E9020008E9020008E90200087A
:1001AC000348044B834202D0034B03B118477047FA
:1001BC000000002000000020000000000548064B55
:1001CC001B1AD90F01EBA301491002D0034B03B149
:1001DC0018477047000000200000002000000000BD
:1001EC0010B5064C237843B9FFF7DAFF044B13B173
:1001FC000448AFF300800123237010BD00000020E1
:10020C00000000003403000808B5054B1BB105497C
:10021C000548AFF30080BDE80840FFF7CFBF00BF33
:10022C00000000000400002034030008034AD2F848
:10023C00883043F47003C2F88830704700ED00E05A
:10024C00104AD2F8303843F00203C2F830380E4B63
:10025C00D3F8002442F48042C3F80024D3F80824D5
:10026C0042F48042C3F80824D3F8182442F4000264
:10027C00C3F81824044AD2F8183443F08003C2F8A7
:10028C001834F7E70030024000000240DFF834D0A9
:10029C000D480E490E4A002302E0D458C4500433D2
:1002AC00C4188C42F9D30B4A0B4C002301E01360A9
:1002BC000432A242FBD3FFF7B9FF00F011F8FFF7AD
:1002CC00BFFF70470000032000000020000000204A
:1002DC0054030008000000201C000020FEE7000072
:1002EC0070B50D4D0D4C641BA4100026A64209D10F
:1002FC000B4D0C4C00F018F8641BA4100026A64201
:10030C0005D170BD55F8043B98470136EEE755F81A
:10031C00043B98470136F2E74C0300084C030008F5
:10032C004C03000850030008F8B500BFF8BC08BC2B
:10033C009E467047F8B500BFF8BC08BC9E46704797
:04034C00150200088E
:04035000ED010008B3
:040000050800029954
:00000001FF
